:020000040800F2
:10000000A817002021020008250200082702000886
:10001000290200082B0200082D0200080000000041
:100020000000000000000000000000002F02000897
:100030003102000800000000330200083502000809
:100040007F2F000837020008370200083702000837
:10005000370200083702000837020008370200089C
:100060000F34000837340008370200083702000850
:10007000370200083702000837020008370200087C
:10008000370200083702000837020008370200086C
:10009000370200083702000837020008370200085C
:1000A000370200083702000837020008370200084C
:1000B0003F40000807270008370200083702000801
:1000C000370200083702000837020008370200082C
:1000D00037020008514C0008853500083702000837
:1000E000370200083702000837020008370200080C
:1000F00037020008370200083702000837020008FC
:100100003702000837020008113F000837020008D4
:10011000C9300008BF4500089543000837020008B1
:1001200037020008370200083702000837020008CB
:1001300000F002F800F05EF80AA090E8000C82449B
:100140008344AAF10107DA4501D100F053F8AFF278
:10015000090EBAE80F0013F0010F18BFFB1A43F0A5
:1001600001031847F45C0000145D000010F8013B27
:100170000A4413F0030408BF10F8014B1D1108BF17
:1001800010F8015B641E05D010F8016B641E01F8C5
:10019000016BF9D1002D15D010F8014B03F00C03C1
:1001A0000C2BA1EB04040ABF10F8013BA4EB831451
:1001B000A4EB032405F1010314F8016B5B1E01F8A5
:1001C000016BF9D5914238BF10F8013BD1D370478C
:1001D0000023002400250026103A28BF78C1FBD850
:1001E000520728BF30C148BF0B6070471FB51FBD05
:1001F00010B510BD04F05DFD1146FFF7F7FF00F0EC
:1002000060FA04F07BFD03B4FFF7F2FF03BC04F0D7
:100210007FFD000030BF72B662B680F30888704779
:1002200008480047FEE7FEE7FEE7FEE7FEE7FEE7D9
:10023000FEE7FEE7FEE7FEE703480449044A054BF4
:100240007047000031010008A8110020A817002005
:10025000A8130020A8130020FE4908700978FE4A60
:1002600011700421FD4A11700121FD4A117070477F
:10027000FC4908600021FC4A1160FC4AC2F88C115C
:10028000F94A1160F84A143A11600121F34A1170D9
:100290007047F2480078F64908700220EF4908706C
:1002A0000120EF49087000BFED4800780228FBD11B
:1002B0000120ED490860ED49C1F88C01EA49086068
:1002C000EA49C1F88C01704770B505460C4602201A
:1002D000E8490870FFF7DDFF4FF4FA7002F0E0FB29
:1002E000E5480570E54804700020DF490860DF49F3
:1002F000C1F88C010520D94908700120D84908703F
:1003000000BFD74800780228FBD10120D6490860F9
:10031000D649C1F88C01012C09D1D948007830B9EF
:10032000D8480068FFF7A4FF0120D249087070BDCB
:1003300070B504460D460020D34908700220CD490F
:100340000870FFF7A6FF4FF4FA7002F0A9FB1CB982
:100350000020CE4908701CE0012C03D10120CB49BC
:10036000087016E0022C03D10220C849087010E082
:10037000032C03D10020C54908700AE0042C03D1E6
:100380000120C249087004E0052C02D10220BF49B7
:1003900008700120BE490870BC480078B0B1002048
:1003A000B1490860B149C1F88C010320AB4908701C
:1003B0000120AB49087000BFA94800780228FBD192
:1003C0000120A9490860A949C1F88C01642002F004
:1003D00067FB05F10C0004F037FB08E04FF47A707E
:1003E00002F05EFBAB480078401CAA490870681E0A
:1003F000A949085CA74909788842EFD10020A5499E
:1004000008700A2002F04CFB1CB900209F490870BC
:1004100016E0012C03D102209C49087010E0022C48
:1004200003D10120994908700AE0042C03D101206E
:100430009649087004E0052C02D102209349087007
:100440000220934908700020874908608749C1F855
:100450008C018B490870032C04D101210846FFF759
:1004600033FF0DE08948007850B103207B490870C4
:1004700001207B49087000BF794800780228FBD131
:100480000020834908707E480078012803D10020AD
:100490007B49087006E07B480068FFF7E9FE012011
:1004A0007449087001207849087070BD38B101287E
:1004B00002D0022809D105E0A5220A6008E08C22BA
:1004C0000A6005E073220A6002E08C220A6000BF25
:1004D00000BF704710B500240EE0204604F006FA75
:1004E000C1B26D4814380155204604F013FAC1B268
:1004F00069480155601CC4B2142CEEDB002408E0EE
:10050000204604F01BFAC1B2634815300155601C47
:10051000C4B20A2CF4DB04F027FA5F49183981F8D9
:100520002C0010BD10B5002003F04EFB002003F09E
:1005300043FB012003F050FB002003F055FB00209B
:100540005649087110BD5648806940F0080054496A
:1005500088610846806940F020008861084680690B
:1005600040F4807088614F48006820F070404D4929
:1005700008600846006840F00040086049480830BC
:10058000006840F400404749083108604648006868
:100590000020454908600846006840F0883008603F
:1005A00041480830006840F47F403F490831086006
:1005B0003E480068C0B23D4908600846406820F0E7
:1005C0000F00486008460068394908433749086009
:1005D0000846406840F0080048600846C06840F49B
:1005E000FE70C860704770B505460C462C48C0695F
:1005F00040F002002A49C8612E480580001F04808F
:100600002C482038008840F001002A492039088011
:1006100028482C38008840F0010026492C390880F1
:1006200002231D221946032002F072FA70BD1C48F5
:10063000806940F080001A4988611F48006820F4F2
:1006400070601D4908600846006840F4407008600A
:10065000012033E080070020050200200102002075
:100660000202002044020020A08121420080214299
:100670000602002000020020820700200402002061
:10068000880200202002002089020020810700202B
:100690000302002088070020CA1000206D050020FA
:1006A00000100240040C01400414014000200140ED
:1006B000008888882C040040041C0140F949086027
:1006C00070470024F8480068F8490968401A0F216B
:1006D00090FBF1F5284605F0DBF9F54908600920A3
:1006E00002F0FEFA012002F0E6FA482002F0A0F93A
:1006F000FFF79DFF0020EB4908600A2002F0D0F9C7
:100700000120EC49C1F8A8010A2002F0C9F9002033
:10071000E44908600A2002F0C3F90120E549C1F864
:10072000A8010A2002F0BCF941F61F413120FFF771
:100730005AFF02F0ADFBFFF706FF02F007FD02F0E3
:1007400033FE03F033F9002004F02AF903F054FAE1
:1007500040F27121032002F0B9FB4FF496412420AE
:1007600002F01AFB04F04BFA03F0F9FE02F083FCEE
:1007700002F0FEFF41F61F41312003F032FC41F64A
:100780001F41312003F094FB41F61F41312003F05B
:10079000D8FD0A2002F084F902F0A3FB04F036FA37
:1007A00002F070FC03F0E2FEFFF7BCFE45E2C24837
:1007B000007801287ED1C1480078012802D00228A3
:1007C00079D18AE0FFF786FE0020BD490870BD4957
:1007D0000870BD48807801287BD14FF47A7002F010
:1007E0005FF94FF47A7002F05BF9022003F0F4F93C
:1007F00004F041F90546AC49FFF758FEAF4890F8C0
:100800002C0030B1012805D002281ED0032848D181
:1008100036E046E00120AD4908700020AC49086090
:10082000AC49C1F88C010320AB4908700120AB49E9
:10083000087000BFA94800780228FBD10120A44914
:100840000860A449C1F88C012BE002209F49087080
:1008500000209F4908609F49C1F88C0103209E49F0
:10086000087001209D49087000BF9C48007802284C
:10087000FBD10120964908609649C1F88C0110E02F
:100880000020974908700120964908700121084608
:10089000FFF71AFD00209449087001209049087064
:1008A00000BF00BF80480068FFF7E2FC00208F49CE
:1008B000087002E037E02FE00BE001208C4908705F
:1008C0008C4908700020874908708B4908708B4953
:1008D000087000208A4908701FE0854800780128C8
:1008E00004D1022082490870FFF7D3FC022081491D
:1008F000087084480078042806D182480078764938
:10090000087000207F490870012003F065F900207D
:100910007D49C870887000E000BF00BF00206A49B0
:100920000870654908707948007801287AD16648CE
:100930008078012876D06E480078012873D16B4802
:100940000078002831DD6948007814282DDC5D48E6
:10095000007850BB6548007859490978884223D00F
:1009600062480078401E5549091D085C20B10128E5
:1009700008D0022812D10BE05C4801780020FFF774
:10098000D7FC11E0594801780120FFF7D1FC0BE0BA
:10099000564801780220FFF7CBFC05E05348017868
:1009A0000020FFF7C5FC00BFF6E05048007884281F
:1009B00016D10120434908704A4800780028F3D135
:1009C0004749087001204749087001210846FFF790
:1009D0007BFC002044490870012041490870DBE09D
:1009E0004248007883285BD135480078002857D0EA
:1009F0003E48007832490978884251D03C48007816
:100A0000012804D102203A490870FFF742FC2B4824
:100A100090F82C0040B1012807D0022823D00328E9
:100A200002D177E0C1E0BBE084E0012038490870E2
:100A30000220264908700020254908602549C1F890
:100A40008C0103202449087001202449087000BF4C
:100A5000224800780228FBD101201D4908601D4969
:100A6000C1F88C0166E00120294908701749087017
:100A70000020174908601749C1F88C010320164966
:100A8000087001201549087000BF1448007802283A
:100A9000FBD101200E4908600E49C1F88C0149E0E4
:100AA0005FE00000A88123422002002024020020F1
:100AB00078020020008023427C070020B210002032
:100AC0008F020020BC0200206D050020810700205D
:100AD000A081214200802142010200200202002068
:100AE000890200201602002088020020F702002060
:100AF0000002002014020020180200201902002029
:100B0000F90400200602002083070020F6020020DE
:100B1000030200200020FE4908700120FD490870F2
:100B20000221FFF7D1FB0020FB4908700120F849A2
:100B3000087000BF00BF0220F8490870F84800782C
:100B4000042806D1F6480078F64908700020F449D8
:100B50000870012003F040F80020F349C870887045
:100B60001AE0F2480078642816DDF04800786E2814
:100B700012DCEE4800786538ED49085C10B90120B8
:100B8000FFF76AFBE94800786538E949085C012805
:100B900002D10220FFF760FBE4480078E5490870C5
:100BA0000020E2490870E4490870E4480078012810
:100BB00013D1002407E0A01DE14A115C204603F098
:100BC00089FE601CC4B2142CF5DBDE480178DC48D9
:100BD00004F031F80020D9490870DB48007801287A
:100BE00013D1002407E0A01DD54A115C204603F074
:100BF00085FE601CC4B2142CF5DBD2480178D048C5
:100C000004F019F80020D0490870D0480078012875
:100C100013D1002407E0A01DC94A115C204603F04F
:100C200081FE601CC4B20A2CF5DBC6480178C448BA
:100C300004F001F80020C5490870B8E570B500253A
:100C4000012415E0204603F093FEC14921F8240059
:100C5000204603F095FEBE4901EB840188702046D2
:100C600003F096FEBA4901EB8401C870601CC4B25F
:100C70000A2CE7DD03F074FEB649087008460078D8
:100C8000012803D10320B449087042E0012401E0A7
:100C9000601CC4B2AE4800EB8400807808B90A2C0E
:100CA000F6DD0A2C31DCAA4800EB84008078AA49E2
:100CB000087008460078012804D0022806D00328CE
:100CC0001FD11DE00020A54908701BE00CE0A048E2
:100CD00000EB84008078022804D12846691CCDB23C
:100CE0009E490C54601CC4B20A2CF0DD05E00022C1
:100CF0002846691CCDB299490A540A2DF7DD01E056
:100D000000E000BF00BF012070BD002092490870C4
:100D1000FAE700BFF8E710B58F48007830B1012836
:100D200005D0022804D0032844D134E043E042E057
:100D30008B48007870BB8B48007858B18748894948
:100D40000978405C824901EB8000807810B900206E
:100D5000844908708149834A1278895C891CC8B229
:100D600002F0F9FC7D487F490978405C784931F808
:100D70002000401C7C49088001207949087079488E
:100D80000078401C77490870084600780A2801DD81
:100D9000002008700FE07248007850B9032002F07C
:100DA000DAFC6B488088801D6F49088001206C49FF
:100DB000087000E000BF00BF10BD00206649087049
:100DC0006749087068490880684908706849086080
:100DD000684908606849086070472DE9F041054698
:100DE0000C4600264FF400170020644908704E4856
:100DF0000078634908700520487008468570C47003
:100E0000042102F087F906465D490E7130124871DF
:100E100006215B4803F0C6FB5A48047104E07F1EBC
:100E200017B90020BDE8F081544800780028F6D0BA
:100E30000020524908700120F4E770B504460025EF
:100E40004FF4001600204D490870374800784C498F
:100E500008700420487008468470032102F05AF993
:100E600005464749CD70281208710521444803F012
:100E700099FB03E0761E0EB9002070BD3F48007854
:100E80000028F7D000203D4908700120F5E770B533
:100E900004460025A4F178000A2829D2DFE800F0F2
:100EA000050A0C1113181A1F21260125012002F032
:100EB0009BFE1EE002251CE00125022002F094FEAC
:100EC00017E0022515E00125032002F08DFE10E059
:100ED00002250EE00125042002F086FE09E002252D
:100EE00007E00125052002F07FFE02E0022500E078
:100EF00000BF00BF012D74D123480078002870D1B5
:100F00000120214908701F49C878FFF796FF3DE08E
:100F1000890200201602002088020020140200200E
:100F2000060200200102002083070020F7020020B3
:100F3000DF1000208F020020F6020020780700203A
:100F4000C80700207B070020790700207A070020CF
:100F500086100020900200208A0200208C070020CA
:100F60008E020020D80200208C020020A002002067
:100F7000A4020020AC020020940200207E07002082
:100F80005E0800206D0500201702002040B9FB49D3
:100F9000C878FFF752FF18B9F849C878FFF74DFF36
:100FA000F648007998B9F549C8780121FFF715FF8F
:100FB00000285AD1F149C8780121FFF70EFF002817
:100FC00053D1EE49C8780121FFF707FF4DE0EC4807
:100FD0000078012804D10220E9490870FFF759F987
:100FE00010E02CE04FF47A7001F05AFD4FF47A7063
:100FF00001F056FD4FF47A7001F052FDDF49C878D8
:10100000FFF71BFFDD4800790128EBD0DB49C878EA
:101010000121FFF7E2FE50B9D849C8780121FFF756
:10102000DCFE20B9D549C8780121FFF7D6FED548A6
:101030000068FFF71DF90120D149087015E0022D65
:1010400013D1D148007801280FD10020CE49087073
:10105000CA49C8780021FFF7C0FEC849C8780021F6
:10106000FFF7BBFE002002F0BFFD70BD10B50024ED
:1010700002F0CCF8044604F0010018B10B2002F095
:101080006AFB05E004F0020010B10C2002F063FBE3
:1010900010BD10B50020BD490870BD490860BD49AC
:1010A0000860BB480168006802F02EFC0120BA49C4
:1010B0000860BA49C1F88C01B7490860B749C1F85E
:1010C0008C0110BD10B5AE480078012800D010BDCD
:1010D000B348807828BBB3480078012803D0B148D2
:1010E000007802280FD1B0480078012804D1A54823
:1010F0000068FFF7BDF80EE0AB48007802280AD17F
:10110000A249087007E0A7480078032803D19D484A
:101110000068A64908600020A5490870A149087028
:1011200051E09F48807803282AD19E480078012802
:1011300003D09C48007802280FD19B4800780128F2
:1011400004D19C480068FFF793F812E096480078B5
:1011500002280ED18D4908700BE09248007820B922
:10116000944800689149086003E0924800688F49FC
:10117000086000208E49087003208A49087022E028
:1011800087488078012803D08548807802281AD1C2
:1011900087480078401C86490870084600780A286D
:1011A00011DB0A2008707948007830B17748007860
:1011B0007D490870022003F047FCFFF76AFF78487A
:1011C00080787849087000BF81E710B501F0EFFF23
:1011D0007948007800F0040018B1012077490870C0
:1011E0000BE07548007800F0010018B10220734947
:1011F000087002E000207149087010BD10B501F0C0
:10120000D6FF6F480078012804D0032818D004289E
:101210006BD154E06848007800F0040018B1012058
:10122000664908700BE06448007800F0010018B1CE
:1012300002206249087002E000206049087058E00E
:1012400060480078012804D002280FD0032830D14C
:1012500019E05948007800F0100018B101205749F2
:10126000087002E000205549087026E052480078D6
:1012700000F0200018B101205049087002E0002061
:101280004E49087019E04C48007800F0080018B189
:1012900001204A4908700BE04748007800F002003E
:1012A00018B102204549087002E000204349087047
:1012B00003E000204149087000BF00BF19E03E482C
:1012C000007800F0080018B101203C4908700BE0DC
:1012D0003948007800F0020018B102203749087040
:1012E00002E000203549087003E00020334908700F
:1012F00000BF00BF10BD10B530480078002871D184
:10130000314908703148007820B1012815D00228F1
:1013100062D100E061E01A48007801280CD117483A
:101320008078042804D0174800682049086003E04A
:10133000274800681D4908604FE0002002F00BFAC2
:101340000F480078012817D10C488078042804D071
:101350000C480068FEF78CFF03E01D480068FEF7AC
:1013600087FF17480078032806D11A48007801281B
:1013700002D10620054908702FE033E06D050020FA
:10138000000200202002002017020020010200209D
:101390004802002040020020A0812142008021421A
:1013A000B2100020DA020020DB02002044020020FC
:1013B000D902002024020020FA040020F8040020B2
:1013C000A0020020B0020020DC020020F90400206E
:1013D000280200200202002000BF00BF0020F649C2
:1013E00008707AE0F5480078022849D10020F449D5
:1013F0000870F148007820B1012826D0022839D1A0
:1014000011E0F048007801280CD1EF4880780428DA
:1014100004D0EE480068EE49086003E0ED4800683B
:10142000EB49086027E0E748007801280CD1E6483E
:101430008078042804D0E5480068E549086003E0A6
:10144000E4480068E249086015E0002002F083F9F2
:10145000DC48007801280CD1DB488078042804D0CF
:10146000DA480068FEF704FF03E0DA480068FEF798
:10147000FFFE00E000BF00BF0220CF4908702CE053
:10148000CF480078401CCE490870084600780A28EA
:1014900023DB0A200870C848007820B1012810D04A
:1014A000022815D106E0C7480078012801D1FFF7CE
:1014B000F0FD0EE0C3480078012801D1FFF7E9FDF7
:1014C00007E0C0480078012801D1FFF7E2FD00E005
:1014D00000BF00BF0120B849087010BD10B5BE485C
:1014E0008478B9488078012800D010BD012C01D043
:1014F000022C0AD1B9480078012806D0B7480078F4
:10150000022802D0032003F09FFAB448047000BF01
:10151000EBE72DE9F041B2480068B249096888421A
:101520007BD0AF480068AF490968884221DDAE48EA
:10153000006803F090FE04460D46A9490968A94ACF
:101540001268881A03F087FE21F000410646224601
:101550002B4603F0E5FF07D8A2480068A2490968B6
:101560000844A049086058E09D4800689D4908600B
:1015700053E09E480078012823D195480068B2289E
:1015800003DB06209A49086026E091480068962807
:1015900003DB0520964908601EE08D4800688C2812
:1015A00003DB04209249086016E089480068782827
:1015B00003DB03208E4908600EE002208C4908609E
:1015C0000AE08A480078042803D10220884908608C
:1015D00002E00520864908608548006803F03BFE6C
:1015E00004460D467F4909687D4A1268881A03F04F
:1015F00032FE21F00041064622462B4603F090FFC2
:1016000007D8784800687A490968401A754908601F
:1016100003E07348006873490860BDE8F0817548CD
:10162000006838B17348001F006818B17148083865
:10163000006810B90120704908707048006838B11E
:101640006E48001D006818B16C480830006810B979
:10165000FF2069490870704766480C30006801280F
:101660000FD164481030006801280AD16348083857
:101670000068012805D161480C380068012800D1B4
:1016800070470020FCE75B480068012849D15948B1
:10169000001F0068012844D1564808380068012816
:1016A0003FD15748006801283BD15248001D0068CF
:1016B000012836D14F4808300068012831D14D4803
:1016C0000C30006801282CD14A48103000680128ED
:1016D00027D14A4808380068012822D147480C38E9
:1016E000006801281DD1454810380068012818D12C
:1016F000404814300068012813D14048001F00689A
:1017000001280ED13D48006801280AD13B48001D40
:101710000068012805D1394808300068012800D147
:1017200070470020FCE770B504460D463548007848
:1017300088BBFFF7A8FFD0B929480068324909687B
:10174000884203D03048006825490860022C07D140
:101750002448006841422348006802F0D5F8F6E0CA
:10176000204801680068404202F0CEF8EFE0022C09
:1017700007D11C48006841421A48006802F0C4F8CA
:1017800005E0184801680068404202F0BDF80120F9
:101790001C490870DBE0FFE7FFF75EFF58B91B4804
:1017A0000078401C194908700846007864283FDD1D
:1017B000642008703CE02BE0F9040020F8040020CD
:1017C000DC020020000200206D0500202402002021
:1017D0004402002028020020B2100020DD02002078
:1017E00040020020480200203802002006020020AB
:1017F0003C02002028812242BD0200201801244220
:101800003C812142EE02002030020020EF02002045
:101810000020FE490870FE480068401CFC49086032
:1018200008460068B0F5166F02D34FF416600860E2
:10183000F648007848BBF6480068B0F5166F09D343
:101840000020F4490860F448006868B90120F349B1
:10185000087009E0EF480068F1490968884203D040
:10186000EF480068EB490860022C07D1EA4800689D
:101870004142E948006802F047F84EE0E648016856
:101880000068404202F040F847E0E04800780A284B
:1018900043DB012D25D0022D3BD1DE48006810B17D
:1018A0000020DC490860022C07D1DB480068414277
:1018B000D948006802F028F805E0D74801680068B8
:1018C000404202F021F8D448006848B90220D549C6
:1018D00008700020D4490870D4490870CB490870BA
:1018E00017E0022C05D10021CB48006802F00CF86B
:1018F00004E0C9480168002002F006F80220C94946
:1019000008700020C8490870C8490870BF490870AD
:1019100000BF00BF0020BE490860C0480078012811
:1019200015D10220BF4908700020BF490870BF4987
:101930000870B6490870B64908600021084601F0F1
:10194000E3FF0120BA490860BA49C1F8900170BDAF
:101950002DE9F04F97B001201690002500240020BB
:10196000159014901390129000260027804681460F
:1019700082468346119010900F900E900D900C901F
:10198000AD480068C0B21590AC48D0F82401C0B290
:101990001490A94808380068C0B21390A548D0F840
:1019A0003C01C0B21290A548D0F82C01C6B2A348A1
:1019B000D0F83001C7B2A148D0F8340100F0FF08D8
:1019C0009E48D0F8380100F0FF099D48D0F810017A
:1019D00000F0FF0A9A48D0F80C0100F0FF0B98487D
:1019E000D0F80801C0B211909448D0F83C01C0B2C0
:1019F00010909348D0F81401C0B20F909048D0F8DE
:101A00001801C0B20E908E48D0F81C01C0B20D90E3
:101A10008B48D0F82001C0B20C901598012840D115
:101A2000149801283DD1139801283AD11298012821
:101A300037D1012E35D1012F33D1B8F1010F30D17B
:101A4000B9F1010F2DD1BAF1010F2AD1BBF1010F6C
:101A500027D11198012824D11098012821D10F985D
:101A600001281ED10E9801281BD10D98012818D1EC
:101A70000C98012815D173480078401C71490870F2
:101A80000020714908706F480078704909788842D1
:101A900006DB01206E4908706C48007869490870BF
:101AA0000BE386B17FB1B8F1000F0CD0B9F1000F94
:101AB00009D0BAF1000F06D0BBF1000F03D0119886
:101AC00008B1109820B960480078401C5E49087041
:101AD00000205C4908705C4800785C4909788842BD
:101AE000DEDB00205A4908705848007856490870D3
:101AF0004D48007801287DD1159818B9681C45B269
:101B0000601CC4B2149818B9A81C45B2601CC4B2B9
:101B1000139818B9E81C45B2601CC4B2129818B9E1
:101B2000281D45B2601CC4B21EB9681D45B2601CB8
:101B3000C4B21FB9A81D45B2601CC4B2B8F1000FF1
:101B400003D1E81D45B2601CC4B2B9F1000F04D145
:101B500005F1080045B2601CC4B2BAF1000F04D10F
:101B600005F1090045B2601CC4B2BBF1000F04D1FD
:101B700005F10A0045B2601CC4B2119820B905F104
:101B80000B0045B2601CC4B2109820B905F10C00DE
:101B900045B2601CC4B20F9820B905F10D0045B2E2
:101BA000601CC4B20E9820B905F10E0045B2601C4D
:101BB000C4B20D9820B905F10F0045B2601CC4B243
:101BC0000C9820B905F1100045B2601CC4B2072C76
:101BD0007ADC204603F056FBCDE90401284603F0E9
:101BE0003AFB00221B4BCDE9000103F09BFBCDE942
:101BF000020100E071E0DDE9042303F077F900223F
:101C0000154BCDE9060103F0C1FC27E0EF020020EF
:101C100084020020400200204802002088020020A8
:101C2000300200200202002001020020EE0200200B
:101C3000A481214200802142288122420080224248
:101C400000002442C3020020C4020020C50200207C
:101C5000C20200200000F03F0000214000224FF0AF
:101C60008043CDE9080103F05DFBCDE90A0103F0F3
:101C700095FA40B2F7490870084690F900000870DC
:101C8000F54890F91D00F5490968081AF14991F9DC
:101C900000100844F14908601D2016900AE01698CB
:101CA000401EED49095CEC4A169811541698401EE6
:101CB000C0B2169016980028F1DCE64890F90000B2
:101CC000E54908708EE1FFE7E44800681E2190FBBB
:101CD000F1F040B2DF49087084E1E148007804285F
:101CE000F0D1E0480078002870D0012802D0022806
:101CF0006BD16CE0159810B90120D6490870149882
:101D000010B90220D3490870139810B90320D149A3
:101D10000870129810B90420CE49087016B9052031
:101D2000CC49087017B90620CA490870B8F1000FED
:101D300002D10720C7490870B9F1000F02D108206D
:101D4000C4490870BAF1000F02D10920C1490870D6
:101D5000BBF1000F02D10A20BE490870119810B9DA
:101D60000B20BC490870109810B90C20B9490870B4
:101D70000F9810B90D20B74908700E9810B90E20B1
:101D8000B44908700D9810B90F20B24908700C982A
:101D900010B91020AF490870AE4890F9000003F068
:101DA0005AFA0022B04BCDE9060103F0EFFB002206
:101DB0004FF08043CDE9080103F0B4FACDE90A0100
:101DC00003F0ECF940B2A34908700AE16BE00C980B
:101DD00010B910209F4908700D9810B90F209D4927
:101DE00008700E9810B90E209A4908700F9810B913
:101DF0000D2098490870109810B90C20954908706A
:101E0000119810B90B2093490870BBF1000F02D153
:101E10000A2090490870BAF1000F02D109208D49BB
:101E20000870B9F1000F02D108208A490870B8F192
:101E3000000F02D107208749087017B9062085498D
:101E4000087016B9052083490870129810B904204B
:101E500080490870139810B903207E4908701498BF
:101E600010B902207B490870159810B901207949F2
:101E70000870784890F9000003F0EDF900227B4BE0
:101E8000CDE9060103F082FB00224FF08043CDE94B
:101E9000080103F047FACDE90A0103F07FF940B2E7
:101EA0006C4908709DE0159818B9681C45B2601C13
:101EB000C4B2149818B9A81C45B2601CC4B21398D7
:101EC00018B9E81C45B2601CC4B2129818B9281D94
:101ED00045B2601CC4B21EB9681D45B2601CC4B2D4
:101EE0001FB9A81D45B2601CC4B2B8F1000F03D1E0
:101EF000E81D45B2601CC4B2B9F1000F04D105F170
:101F0000080045B2601CC4B2BAF1000F04D105F15B
:101F1000090045B2601CC4B2BBF1000F04D105F149
:101F20000A0045B2601CC4B2119820B905F10B003B
:101F300045B2601CC4B2109820B905F10C0045B23E
:101F4000601CC4B20F9820B905F10D0045B2601CA9
:101F5000C4B20E9820B905F10E0045B2601CC4B29F
:101F60000D9820B905F10F0045B2601CC4B20C9861
:101F700020B905F1100045B2601CC4B2072C2CDC5E
:101F8000204603F07FF9CDE90401284603F063F908
:101F90000022374BCDE9000103F0C4F9CDE902017D
:101FA000DDE9042302F0A2FF0022324BCDE9060155
:101FB00003F0ECFA00224FF08043CDE9080103F072
:101FC000B1F9CDE90A0103F0E9F840B221490870FE
:101FD000084690F90000087002E000201D490870D2
:101FE00000BF00BF1B480078B8B923480078401CE8
:101FF00021490870002021490870214908701E48B5
:10200000007820490978884257DB00201E49087073
:102010001C480078184908704FE00E4890F90000FD
:10202000002833DA15480078401C14490870002055
:102030001149087012490870104800781149097850
:1020400088423ADB0120104908700E4800780B499D
:10205000087032E0E602002096070020C802002047
:1020600001020020800700200000234000001E40E5
:102070000000F03F00002140BF020020BE0200200F
:10208000C0020020C1020020BD020020FB480078F1
:10209000401CFA4908700020F9490870F949087095
:1020A000F6480078F8490978884206DBFF20F749AE
:1020B0000870F5480078F1490870F54890F900007B
:1020C00017B0BDE8F08F2DE9FC5FF24890F90000F1
:1020D000F1490870FFF73CFCEE490870EF480078C2
:1020E000042816D1084690F9000003F0B4F821F056
:1020F00000418046EA4AEB4B03F014F90646002201
:10210000E94B02F03FFE044602F00AFEE749086090
:1021100021E0E748006803F023FB04460D46DD4854
:1021200090F9000003F097F821F000498046E1485B
:10213000006803F015FB064642464B4603F0F2F8F2
:10214000824622462B4602F01DFECDE9000102F038
:10215000E7FDD6490860D849D448006803F0C4FDBB
:1021600002D2D548D1490860D4480068C94991F9DC
:1021700000100844D149086008460068D049096841
:10218000884203DBCE480068CC490860CB48006831
:10219000CB4909684942884204DCC948006840428A
:1021A000C6490860C748007800287DD1C648007835
:1021B00001280AD10020C4490870C4490860C449F4
:1021C000C1F890010120C3490870B4480078012883
:1021D0003ED1B04890F90000012805DCAD4890F9E7
:1021E0000000B0F1FF3F2EDAAA4890F9000003F09A
:1021F00032F821F00041074603F000F8C0B2A0F128
:102200000109484603F044FC0646B34801683046DD
:1022100003F09EFC0546B148006803F039FC824695
:10222000294603F09DFD044603F0F6FBAC49086027
:1022300008460068AB490968884219DAA94800686D
:10224000A749086014E0A5480068A54908600FE0A8
:1022500092480078042804D1A3480068A049086087
:1022600006E08E480078022802D100209C490860D0
:102270009248006803F00CFC06469C480168304612
:1022800003F066FC0446834890F9000003F000FC6C
:10229000064686480168304603F05AFC054621464A
:1022A00003F08AFA924900E05EE00860084601689F
:1022B0009048006803F04CFC04468F4801688F4842
:1022C000006803F045FC0546214603F075FA88498D
:1022D000086008460068884908608948006803F07B
:1022E000D7FB054682480168284603F039FD0446BD
:1022F00003F092FB834908608148006803F0C8FB43
:1023000005467B480168284603F056FA044603F068
:1023100083FB7D4908607B480068794909688842E9
:1023200003DD77480068774908607748006874499A
:102330000968884203DD7248006873490860724882
:102340000068002802DA00206F4908606D480068C4
:10235000002802DA00206B4908606B480168694870
:10236000006801F0D1FA79E05748007848BB554839
:102370000078012825D1002059490860604800688C
:10238000604908605E4800685F4908603F4890F90E
:102390000000002805DB00215A48006801F0B4FA6B
:1023A00004E059480168002001F0AEFA5448006882
:1023B000002853D101204449087000205349086087
:1023C0004CE041480078012848D13E480078012877
:1023D00044D14E480068401C4C49086008460068DB
:1023E000B0F57A7F06D34FF47A70086000203C493C
:1023F000086003E0464800683949086038480068CA
:1024000080B93F48006868B90021084601F07CFAAD
:1024100001202E4908602E49C1F8900103202D4962
:1024200008701BE036480068364908603448006888
:1024300035490860154890F90000002807DB084678
:10244000006841422F48006801F05EFA06E02E481D
:1024500001682C480068404201F056FABDE8FC9F34
:1024600010B52C480068401C2A49086008460068DE
:10247000B0F5C86F50D8FFF726FE59E0C002002023
:10248000BF020020BE020020C1020020BD020020C9
:10249000E6020020700200207102002001020020EC
:1024A0009A9999999999E93F0000144054020020A3
:1024B000D4020020D002002000002041740200203D
:1024C00064020020C2020020CC020020A48121422C
:1024D00000802142000200207802002044020020F7
:1024E0004002002024020020340200205802002074
:1024F00068020020800200206C0200207C02002084
:10250000480200204C02002050020020E802002077
:102510002C020020100200200220FE49087000203A
:10252000FD490870FD490860FD480068FDF7A0FE00
:1025300010BD70B504460D46012D4AD10120F94960
:102540000870F9480068B0F50C7F1DD8E4B1F74871
:102550000068F7490968884203D0F5480068F349E4
:102560000860022C07D1F34800684142F148006836
:1025700001F0CAF9B9E0012CFCD1EE48016800680D
:10258000404201F0C1F9B0E0E848006810B1002015
:10259000E6490860022C07D1E64800684142E54858
:1025A000006801F0B1F907E0012C05D1E1480168AC
:1025B0000068404201F0A8F9DE4800680028D9D13F
:1025C000D84908700220D34908700020D249087009
:1025D0008BE0FFF741F858B9D7480078401CD6493E
:1025E000087008460078642812DD642008700FE047
:1025F0000020D1490870D1480068401CCF490860CC
:1026000008460068B0F5166F02D34FF416600860F4
:10261000C948007860BB5CB3C8480068B0F5166F65
:1026200009D30020C1490860C248006868B9012088
:10263000C349087009E0BD480068BD49096888427F
:1026400003D0BB480068B9490860022C07D1B948DB
:1026500000684142B748006801F056F929E0012CB2
:1026600027D1B44801680068404201F04DF920E0EC
:10267000B14800780A281CDB022C05D1AD4801685E
:10268000002001F041F906E0012C04D10021A94805
:10269000006801F039F902209E49087000209E4927
:1026A0000870A0490870A0490860A3490870A349B0
:1026B0000860A3480078012817D1022095490870C6
:1026C00000209549087097490870974908609A4911
:1026D00008709A4908600021084601F015F90120A8
:1026E000984908609849C1F8900170BD10B5FFF78E
:1026F000EAFC9048006828B902208649087000204A
:102700008549087010BD10B500249048008800F07D
:10271000010000287ED08E480068401C8C4908606B
:102720008A48008820F001008849088000F0DEFB1C
:1027300088480068C0438849C1F8A8018748807864
:10274000012821D07448007806281BD2DFE800F069
:102750001A0306091013FFF7B6FC14E0FFF7C6FFD3
:1027600011E07F4801787F480078FFF7E2FE0AE039
:10277000FFF776FE07E07C4801787C480078FEF79A
:10278000D2FF00E000BF00BFFEF79CFCFEF747FF52
:102790006448007860B164480068401C6249086081
:1027A00008460068B0F5FA6F02D34FF4FA6008608B
:1027B0006748007800F0070040B968488078012831
:1027C00004D06648807808B1FEF7A3FE6048006830
:1027D0001421B0FBF1F201FB120048BB6448007801
:1027E00001280DD163480088401C624908800846D2
:1027F0000088A02804DB0020088002205C490870C3
:102800005D48007801280ED15C480078401C5B4987
:10281000087000E01BE008460078C82803DD0020AF
:10282000087055490870564800F014FDFEF756FE32
:1028300047480068C8280AD35248006808B90120F0
:1028400000E000204F49086000204149086010BDA9
:102850003E481038008840F001003C49103908809B
:102860007047424908700021364A121F1160364AEB
:10287000C2F88C110621284A11700121254A1170D5
:1028800000BF244909780229FBD101212D4A121FDA
:1028900011602D4AC2F88C11704710B53A48006893
:1028A0002249086023480168006801F02DF810BD36
:1028B00010B53548006840421C4908601D48016851
:1028C000006801F021F810BD10B50020174908601C
:1028D00018480168006801F017F81648006828B920
:1028E00002200C49087000200B49087010BD10B57B
:1028F000044601202549086025480068254988428A
:1029000062D82CB10948006809490968884243E047
:102910005AE0000002020020010200201002002004
:10292000200200200C0200200802002040020020AB
:102930003002002048020020EC0200208402002027
:1029400088020020A481214200802142100400401E
:10295000E0020020A8812342008023426D05002070
:1029600003020020810700200402002082070020CB
:1029700014020020E4020020160200200E020020B3
:10298000B4100020B001234244020020B80200200D
:10299000B40200206836020003D01E4800681E49B9
:1029A0000860022C07D11D48006841421B4800689E
:1029B00000F0AAFF2DE0012C2BD118480168006817
:1029C000404200F0A1FF24E01348006810B100204D
:1029D00011490860022C07D11048006841420F4895
:1029E000006800F091FF07E0012C05D10B48016859
:1029F0000068404200F088FF0848006848B902209B
:102A0000074908700020074908700749086007490E
:102A1000086010BD30020020400200204802002063
:102A20000202002001020020B8020020B4020020AF
:102A30004FF0E021096921F004014FF0E02211611B
:102A4000C21700EB5272C2F3C702234B1A70194629
:102A5000097801EB4102C2EBC1114FF6FF7202EAA5
:102A6000C1011E4A1180704701461B4A12784A4331
:102A70004FF0E0235A6100229A6101221A6100BFDF
:102A80004FF0E022106900F001021AB100F4803228
:102A9000002AF5D000224FF0E0231A619A617047B6
:102AA00001460E4A12884A434FF0E0235A61002241
:102AB0009A6101221A6100BF4FF0E022106900F014
:102AC00001021AB100F48032002AF5D000224FF042
:102AD000E0231A619A617047F0020020F2020020A0
:102AE000A14A0A400243A14B1A60704701460723DE
:102AF00023EA010212029D4B1B1D18684FF6FF03CB
:102B000018409B4B18431043984B1B1D186070478F
:102B10002DE9F0410746884614461D462846FFF732
:102B2000E5FFC5F1040007FA00F60F20284100EA8E
:102B30000800064306F00F06202C09DA8D480068CD
:102B40000121A14008434FF0E021C1F800010BE052
:102B50008848001D0068A4F1200101228A4010432A
:102B60004FF0E021C1F804018348005D40EA0610FF
:102B7000C1B281480155BDE8F08170B504460B46ED
:102B8000CE1701EB9676C6F38700CE1701EB96764B
:102B9000B610A1EB8606B606350E784B9B6943F05E
:102BA0000103764EB3614FEAB63353F820300F2657
:102BB000AE40B343724E46F82030334653F82030CF
:102BC00004FA05F61E436E4B43F820606D4B1B68FC
:102BD00001268E4033436B4E336002F0010343B154
:102BE000684B0C331B6801268E403343654E0C3610
:102BF000336002F0020343B1624B08331E680123C5
:102C00008B401E435F4B08331E6070BD00B5002033
:102C10005A490861C8601420486100208861C86171
:102C20000846006840F001000860084640685649C0
:102C300008405249486008460068544908404F49D6
:102C400008600846006820F4802008600846406854
:102C500020F4FE0048600020886000214FF00060F2
:102C6000FFF73EFF00BD10B540480830006840F057
:102C700004003E49083108604048C06940F0805077
:102C80003E49C8614248406840F48070404948600D
:102C90000846006840F0040008600846006840F0FC
:102CA00002000860FDF7B6FA10BD3148001D2F493B
:102CB000091D0860704701464906304A926942F092
:102CC00001022E4B9A612E4A083A526822F0E062C5
:102CD0002B4B083B5A601A4652680A435A607047A9
:102CE00030B504460025FFF791FF2448006840F402
:102CF00080302249086000BF20480068400C00284E
:102D0000FAD04FF480601D494860A01EC4B2084646
:102D1000406840EA844048600846406840F480309B
:102D200048601C48006840F032001A4908601348A7
:102D3000006840F080701149086000BF0F480068CB
:102D4000400E0028FAD00D48406840F002000B49C0
:102D5000486005E009484068C0F3870505F00305B1
:102D6000022DF7D130BD000080FFFF1F08ED00E00D
:102D70000000FA0500E100E000E400E0001002407D
:102D800008000140000401400000FFF8FFFFF6FECC
:102D900000700040002002402DE9F05F05460E461D
:102DA000300102F08DFE8146354905FB01F002F04D
:102DB00087FE8246494602F06DFD0746384602F01E
:102DC00047FE84B2204602F07BFE8346394602F07D
:102DD000BCFF82464FF0834102F0BAFE814602F00A
:102DE00037FE80464FF6FF7000EA041404EB08003B
:102DF00084B22448806940F008002249886108466E
:102E0000C06940F48020C8611F48006820F47F40FA
:102E10001D4908600846006840F40B4008601948E6
:102E2000006940F48020174908610846006920F4D1
:102E30008020086115480480001D008842F20C01C2
:102E400008431249091D0880BDE8F09F0F49091F7A
:102E5000088000BF0D490839098801F08001002968
:102E6000F8D0704710B503460C46002204E0985C89
:102E7000FFF7ECFF501CC2B2A242F8DB10BD00000D
:102E800040420F0000100240040C0140084800407E
:102E90000C48806940F040000A4988610A4800688F
:102EA00020F47020084908600846006840F440306B
:102EB000086005480830006840F480500249083135
:102EC00008607047001002400418014045F2555256
:102ED000304B1A601A46506091604AF6AA221A6076
:102EE00070474CF6CC402B49086070474AF6AA2040
:102EF00028490860704770B506460C4615462648B6
:102F0000C06940F400602449C8612448007830401A
:102F1000224908702248006840EAC510204908602C
:102F2000084600684FF6807108401D490860084651
:102F3000006820430860081F0068184909780843A2
:102F40001749091F08600846006840F080000860C3
:102F50000223002203211846FFF7DAFD0020104962
:102F6000091D0860081F006840F40070091F086010
:102F700070BD00F07F010A4A121F1160704700B552
:102F800006480078FFF7F5FF00200549091D086095
:102F900000BD00000030004000100240F40200209C
:102FA000042C00402DE9F05F05460E46300102F08A
:102FB00087FD8146514905FB01F002F081FD824603
:102FC000494602F067FC0746384602F041FD84B2EC
:102FD000204602F075FD8346394602F0B6FE824671
:102FE0004FF0834102F0B4FD814602F031FD80468E
:102FF0004FF6FF7000EA041404EB080084B2404866
:10300000806940F010003E4988610846C06940F47C
:103010000020C8613B48406820F47F40394948603F
:103020000846406840F40B4048603548006940F469
:103030000020334908610846006920F40020086137
:1030400031480480001D008840F00C002E49091D05
:1030500008800846008840F4807008800846008890
:1030600040F0200008800223342203210020FFF7D3
:103070004FFDBDE8F09F10B54FF416512420FFF727
:1030800091FF10BD2048001D008840F400501E49EB
:10309000091D088070471C49091F088000BF1A4994
:1030A0000839098801F080010029F8D0704710B56F
:1030B00003460C46002204E0985CFFF7ECFF501C2E
:1030C000C2B2A242F8DB10BD10B50F480838008824
:1030D00000F0200088B10C48001F0088C4B20B48E3
:1030E00001780078401C094A10700948445401F0E6
:1030F0001AF901F04BF901F01DF910BD40420F0023
:103100000010024000100140084C0040F502002071
:10311000B407002070B502460C46FF25FF2309E0E6
:1031200012F8010B80EA03010648405C80EA0503BF
:103130000548455C2000A4F10106B4B2F0D143EA91
:10314000052070BDF8020020F80300207F48806948
:1031500040F010007D4988610846806940F0080011
:1031600088610846806940F00400886178480068FA
:103170000020774908600846006840F08830086001
:103180007448006820F0FF00724908600846006833
:1031900040F0880008607048006820F0FF006E4929
:1031A00008600846006840F088000860704700200A
:1031B0006A4908706A48006818B1694810300068A8
:1031C00028B96648007840F00400644908706448F3
:1031D0001430006828B96148007840F001005F4968
:1031E00008705F480830006828B95C48007840F0F3
:1031F00010005A4908705A480C30006828B95748DE
:10320000007840F02000554908707047002054496C
:103210001831096809B940F0010051491C310968A9
:1032200009B940F00200704710B54E48007810B957
:103230004DA001F0ACF94B480078012802D14EA016
:1032400001F0A5F947480078022802D14EA001F00C
:103250009EF910BD0178504A12782AB14E4A127870
:10326000521E4D4B1A7070474C4A12782AB14B4A85
:103270001278521E494B1A70F5E7394A12681AB192
:10328000374A103212689AB9022911D0444A12788A
:1032900042B90122424B1A700D223F4B1A70012293
:1032A000027004E000223E4B1A7002220270DAE73C
:1032B0003B4A127812B10022394B1A70284A126820
:1032C0001AB1274A1032126822B9022902D1022209
:1032D0000270C8E7022910D1324A127842B901229D
:1032E000304B1A700D222D4B1A7002220270BAE771
:1032F00000222C4B1A70012202702A4A127812B155
:103300000022284B1A70164A1268012A0CD1144A5E
:1033100010321268012A07D1114A14321268012AA8
:1033200002D1002202709EE70D4A1268012A0BD1D9
:103330000B4A10321268012A06D1094A1432126867
:1033400012B9032202708EE700BF8CE70010024022
:1033500000080140000C014000100140FA04002068
:1033600000012142F80400204E6F206261727269F0
:103370006572210D0A0000004E6561722062617263
:1033800072696572210D0A00466172206261727273
:10339000696572210D0A0000FB040020FC04002076
:1033A000FD040020FE04002010B52E48806940F086
:1033B00010002C4988612C48006820F470602A496C
:1033C00008600846006840F400600860084600682D
:1033D00020F4704008600846006840F4004008602F
:1033E000032202210846FFF7C8FB0223082203211B
:1033F0000846FFF78DFB032211460220FFF7BDFBB5
:103400000223092203210846FFF782FB10BD17485B
:103410000068012804D1022015490870087006E0F0
:103420001248006818B9002011490870087004207B
:103430001049086070470D48001D0068012804D13C
:1034400002200B490870087007E00848001D00685A
:1034500018B900200649087008700820054908605E
:103460007047000000100240001001400801224295
:10347000FF040020140401402DE9F05F05460E46CC
:10348000300102F01DFB8146E24905FB01F002F02C
:1034900017FB8246494602F0FDF90746384602F01E
:1034A000D7FA84B2204602F00BFB8346394602F07D
:1034B0004CFC82464FF0834102F04AFB814602F009
:1034C000C7FA80464FF6FF7000EA041404EB0800C8
:1034D00084B2D148806940F00400CF498861084631
:1034E000C06940F40030C861CC48006820F47F40D7
:1034F000CA4908600846006840F40B400860C648A6
:10350000006940F40030C44908610846006920F4AD
:1035100000300861C2480480001D008842F20C019E
:103520000843BF49091D08800846008840F48070A0
:1035300008800846008840F02000088002232622E8
:1035400000211846FFF7E4FAB348806940F0040010
:10355000B1498861B148006820F0F000AF490860C7
:103560000846006840F030000860AD48001D008843
:1035700020F00400AA49091D08800120A94908601B
:10358000BDE8F09F7047A649091F088000BFA44905
:103590000839098801F040010029F8D0704710B5BA
:1035A00003460C469E48001D008820F004009C49FC
:1035B000091D088001209B49086000BF9848083811
:1035C000008800F040000028F8D0002204E0985C59
:1035D000FFF7D9FF501C82B2A242F8DB00BF90482F
:1035E0000838008800F040000028F8D010BD30B541
:1035F00004460D46042C01D00B2C35D1012004EBE0
:103600004401894A02EB4101487004EB4400114631
:1036100001EB4000057104EB440011F8100004EBCD
:10362000440102EB41014978084404EB440102EBF8
:1036300041018978084404EB440102EB4101C97857
:10364000084404EB440102EB41010979084404EB0E
:10365000440102EB4101487104EB440102EB4100DB
:103660000621FFF79CFF29E0012004EB44016E4A8C
:1036700002EB4101487004EB4400114611F81000C0
:1036800004EB440102EB41014978084404EB440196
:1036900002EB41018978084404EB440102EB41014B
:1036A000C978084404EB440102EB4101087104EBC2
:1036B000440102EB41000521FFF771FF30BD0028F6
:1036C00048D00121594A11700D2841D2DFE800F09D
:1036D00040070B10151A1F23282D31363B000121FE
:1036E000534A116035E00121514A121D116030E04A
:1036F00001214F4A083211602BE001214C4A0C3263
:10370000116026E001214A4A1032116021E00121B6
:10371000484A11601DE00121464A121D116018E05F
:103720000121444A0832116013E00121424A11602C
:103730000FE00121404A121D11600AE001213E4ABA
:103740000832116005E001213B4A0C32116000E0B3
:1037500000BF00BF704728B1384908700121384ABE
:10376000117004E00021364A1170344A117070471C
:1037700010B52948806940F04000274988613148E8
:103780000068314908402F490860084600682F4901
:1037900008432C4908602048806940F010001E4909
:1037A00088612B484068C0F31300294948600846E7
:1037B000406828490843264948601748806940F016
:1037C000800015498861244800686FF30F00224982
:1037D00008600846006843F2333108431E49086018
:1037E0000020134908601D49C1F88C0110490831B7
:1037F0000860091D0860091D08604FF47A70FFF722
:103800004FF94FF47A70FFF74BF90120FFF7A3FF50
:1038100010BD000040420F000010024000080140AF
:10382000084400408401214203050020690500206E
:1038300088012342B4012242808123426C0500208A
:103840006A05002000180140FF0000F00033330338
:103850000010014000003033001C014000002342F2
:10386000264AD26942F00402244BDA611A46926970
:1038700042F008029A61224A126822F07F42204BED
:103880001A601A46126842F03B421A601D4A1080C4
:10389000121F11801B4A143A128842F06002194B21
:1038A000143B1A801A46128842F008021A80154A00
:1038B0000C3A128842F00102124B0C3B1A80114A5A
:1038C000143A128842F4C0420E4B143B1A801A4636
:1038D000128842F400621A800A4A0C3A128842F0B6
:1038E0001002084B0C3B1A808022064B2C3B1A809E
:1038F0001A46128842F001021A80704700100240F6
:10390000000C01402C0800402DE9F04105460C4612
:10391000EF2D01DDEF2000E02846054615F1EF0F01
:1039200002DA6FF0EE0000E028460546EF2C01DDDC
:10393000EF2000E02046044614F1EF0F02DA6FF0AA
:10394000EE0000E020460446002D05DB00203D4946
:1039500008603D490D800EE0002D0CDA0120394948
:103960000860284601F077FC21F00041064601F08E
:1039700045FC35490880002C06DB012033490860EE
:103980003149091D0C800FE0002C0DDA00202F4971
:103990000860204601F05FFC21F00041064601F07E
:1039A0002DFC2949091D0880BDE8F08110B50E21C4
:1039B000EF20FFF755FF2648806940F008002449B2
:1039C00088610846806940F04000886121480068AD
:1039D000214908401F490860084600681F490843FC
:1039E0001C490860081D006820F0FF00091D0860E0
:1039F0000846006840F0330008601948006820F06D
:103A00000F00174908600846006840F0030008608E
:103A100001200C490C3108601249C1F88C010020CA
:103A20000849103108600749091F08600120091D75
:103A3000086000200C49C1F8800100210846FFF70A
:103A400063FF10BD9481214234080040800123426D
:103A500000100240000C0140FF0F00FF0030330057
:103A600000180140008021420000234270B5044646
:103A7000002600F0F4F8A02000F0A3F900F030F9DF
:103A80002546E11704EB11610912A4EB0121C8B22C
:103A900000F097F900F024F900F0E1F8A12000F01F
:103AA00090F900F01DF9002000F0B9F9064600F089
:103AB000F6F8304670BD70B504460D4600F0CFF8FC
:103AC000A02000F07EF900F00BF9E0B200F079F9E7
:103AD00000F006F9284600F074F900F001F900F052
:103AE000DEF80520FEF7DCFF70BD2DE9F04105464C
:103AF0000E461746002409E0E20026FA02F2D1B28F
:103B00002A1990B2FFF7D7FF601CC4B2BC42F3DBA6
:103B1000BDE8F0812DE9F04107460C46002600255E
:103B200009E036023919491B491E88B2FFF79EFF8A
:103B30000644681CC5B2A542F3DB3046BDE8F081FF
:103B400010B541F6FF70FFF791FF0446552C01D1E7
:103B5000002010BD552141F6FF70FFF7ACFFFF209C
:103B6000FFF784FF0446552C01D10020F1E7012026
:103B7000EFE770B506460C46154608E03046721C65
:103B800096B2FFF773FF04F8010B681E85B2002D93
:103B9000F4D170BD70B505460C46164606E0217896
:103BA0002846FFF788FF681C85B2641C3000A6F128
:103BB00001018EB2F3D170BD1C494870704710B539
:103BC0000120FFF753FF10BD18490870704710B56A
:103BD0000220FFF74BFF10BD14498870704710B5E5
:103BE0000320FFF743FF10BD1049C870704710B5A0
:103BF0000420FFF73BFF10BD10B500F019F80020BE
:103C0000FFF734FF55280FD00020FFF7DDFF00201D
:103C1000FFF7D2FF0120FFF7DFFF0020FFF7E4FFEF
:103C200055210020FFF747FF10BD00006D05002063
:103C30009448806940F01000924988619248006879
:103C400020F47F00904908600846006840F44C105A
:103C500008600846C06840F03000C860704710B582
:103C60008948006820F47020874908600846006889
:103C700040F4403008600120844908608449C1F85C
:103C800094010420FEF7F0FE002080490860042023
:103C9000FEF7EAFE00207E49C1F8940110BD10B580
:103CA0007948006820F47020774908600846006869
:103CB00040F44030086000207449091D08607449D0
:103CC000C1F890010420FEF7CFFE01206F49091DC5
:103CD00008606F49C1F890010420FEF7C5FE10BDD1
:103CE00010B500246848006820F470206649086018
:103CF0000846006840F4002008600120634908601D
:103D0000FEF7B2FE01206249C1F89401FEF7ACFE55
:103D100007E0601CC4B2FA2C03DDFFF7C0FF0120EE
:103D200010BD5A48803800680028F2D15749091D53
:103D3000086000BFF4E710B500205449091D086071
:103D40005148006820F470204F4908600846006818
:103D500040F44030086000204D49C1F89001022035
:103D6000FEF782FE01204949091D08600220FEF786
:103D70007BFE00204649C1F8940110BD10B500201B
:103D80004249091D08604048006820F470203E49FF
:103D900008600846006840F44030086001203C4953
:103DA000C1F890010220FEF75FFE01203749091D8E
:103DB00008600220FEF758FE00203549C1F8940142
:103DC00010BD70B504463048006820F470202E49BC
:103DD00008600846006840F44030086000202B4925
:103DE000091D0860002517E0E00928490860600601
:103DF000040E0220FEF738FE01202549C1F8940187
:103E00000220FEF731FE00202049091D0860022033
:103E1000FEF72AFE681CC5B2082DE5DB70BD70B543
:103E2000054600241848006820F4702016490860F0
:103E30000846006840F400200860002617E00020D3
:103E40001249091D08600220FEF70EFE01201049EC
:103E5000C1F894016006040E0C488038006808B16F
:103E6000601CC4B20120FEF7FFFD701CC6B2082E14
:103E7000E5DB15B9FFF782FF01E0FFF75CFF2046A5
:103E800070BD00000010024000100140900122426D
:103E900000002242FE48008820F00100FC49088012
:103EA0007047FB48008840F00100F94908807047DE
:103EB00070B505460C46F748C06940F00800F54962
:103EC000C861F3482C300580001F0480FFF7E9FF2C
:103ED000EF481430008840F00100ED4914310880AB
:103EE000FFF7D8FFEA480C30008840F00100E849AD
:103EF0000C3108800223322203211846FEF708FE07
:103F0000FFF7C8FF70BD0020E149243108807047E9
:103F10007CB5DF481030008800F0010000284DD04B
:103F200000240026DC4903C9CDE90001D84810303F
:103F3000008820F00100D64910310880FFF7AAFF61
:103F4000D6480078022832D1D548007800F07F04A6
:103F5000022C00DA2BE0A01ED249095C601ED14A77
:103F6000105C01EB002086B2A01E81B21046FFF764
:103F7000D1F8B0421AD1CB480078FE2816D1C948F2
:103F80004078012812D1C748807801280ED103213A
:103F90006846FFF7BFF80546E8B28DF8030028121F
:103FA0008DF804000521684600F045FE00BF00BF03
:103FB0000020BB490870B949087000BF7CBD4FF0B4
:103FC0008040008820F001004FF080410880704759
:103FD0004FF08040008840F001004FF080410880A1
:103FE000704770B505460C46AA48C06940F001000C
:103FF000A849C861880485850485FFF7E9FF4FF06B
:104000008040808A40F001004FF080418882FFF7B5
:10401000D6FF4FF08040808940F001004FF0804192
:10402000888102231C2203211846FEF771FDFFF749
:10403000C6FF70BD00204FF08041888470472DE995
:10404000F04F91B04FF08040008A00F0010000284E
:104050007ED04FF0000BD846002010900F90814684
:104060000E90824690A103C9CDE9030190A103C936
:10407000CDE901014FF08040008A20F001004FF0AF
:1040800080410882FFF79BFF8B480078032806D108
:104090008A48007800F07F08B8F1030F00D238E1B9
:1040A000A8F102008649095C401C854A105C01EBBE
:1040B000002AA8F1020081B21046FFF72BF8504504
:1040C00079D17F484078032804D0062874D0162878
:1040D00073D1C9E07A48C0787949897800EB01202A
:1040E00086B2774840797649097900EB0129B9F120
:1040F000140F50D10D2E24D101208DF8140003206F
:104100008DF8150014208DF81600002408E02046D4
:1041100000F0ECFBC1B2E01C05AA1154601CC4B253
:10412000142CF4DB172105A8FEF7F4FF0546E8B2CE
:104130008DF82B0028128DF82C00192105A800F00D
:104140007AFD0E2E77D101208DF81400032000E0B7
:10415000E6E08DF8150014208DF81600002408E024
:10416000204600F0D7FBC1B2E01C05AA1154601C28
:10417000C4B2142CF4DB172105A8FEF7CBFF0546CB
:10418000E8B28DF82B0028128DF82C00192105A813
:1041900000F051FD4FE0B9F10A0F2AD10F2E4AD19C
:1041A00001208DF8140003208DF815000A208DF8E9
:1041B000160000240BE0ABE03EE0A7E0204600F054
:1041C000BDFBC1B2E01C05AA1154601CC4B20A2C8C
:1041D000F4DB0D2105A8FEF79DFF0546E8B28DF83A
:1041E000210028128DF822000F2105A800F023FDE0
:1041F00021E0304600F068FC074601208DF83000D1
:1042000003208DF8310002208DF8320038128DF82D
:104210003300F8B28DF8340005210CA8FEF77AFFC0
:104220000546E8B28DF8350028128DF836000721D2
:104230000CA800F000FD6AE02148C0782049897888
:1042400000EB012086B21E4840791D49097900EB38
:10425000012087B23946304600F012FC08F0FF0119
:10426000174800F0E8FC52E01548C07814498978F6
:1042700000EB012086B2124840791149097900EB20
:10428000012087B20F4981F80080002422E000005D
:10429000000C004000100240505E0008760700202D
:1042A0007F07002072080020018303013100000015
:1042B00001860302610000007507002089070020C5
:1042C000E91000207B0700205B48005D5B49085532
:1042D000601CC4B25A4800788442F5DB0D2E05D12B
:1042E000142F03D10120574908700EE00E2E05D17E
:1042F000142F03D101205449087006E00F2E04D179
:104300000A2F02D101205149087000E000BF00BF10
:1043100000BF00BF00204E4908704E49087000BF22
:1043200011B0BDE8F08F4C48008820F001004A49E8
:10433000088070474848008840F0010046490880DE
:10434000704770B505460C464448C06940F01000FF
:104350004249C861404885850485FFF7EBFF3E4828
:10436000808A40F001003C498882FFF7DCFF3A4830
:10437000808940F0010038498881022336220321D8
:104380000020FEF7C5FBFFF7CEFF70BD00203249CD
:104390008884704700B53048008A00F0010000288A
:1043A00049D000222C48008A20F001002A490882C6
:1043B000FFF7B9FF2A480078242822D12848C07C7A
:1043C00023281ED1002027490870052201E0501C37
:1043D00082B22348805C3028F9D00CE02048805C11
:1043E0002049097801EB810100EB410030381D497B
:1043F0000870501C82B2102AF0DD01201A490870A2
:1044000015E01748007802280BD11548007B0328D7
:1044100007D11348C07A1349087001201249087067
:1044200005E000200F49087002200F4908700020A5
:104430000E49087000BF00BDE9100020C807002029
:104440007B07002078070020790700207A070020EA
:10445000890700207507002000100040001002406E
:10446000B4070020F7020020F6020020F502002029
:104470002DE9F05F05460E46300101F021FB814633
:104480005D4905FB01F001F01BFB8246494601F046
:1044900001FA0746384601F0DBFA84B2204601F003
:1044A0000FFB8346394601F050FC82464FF08341B2
:1044B00001F04EFB814601F0CBFA80464FF6FF70CB
:1044C00000EA041404EB080084B24C48806940F010
:1044D00010004A4988610846806940F020008861E0
:1044E0000846C06940F48010C8614548406820F41F
:1044F0007020434948600846406840F430204860D6
:104500004048006820F470603E4908600846006832
:1045100040F4006008603948006940F48010374971
:1045200008610846006920F480100861364804815B
:10453000808940F00C00344988810846808940F425
:10454000807088810846808940F02000888102239D
:10455000352203210120FEF7DBFABDE8F09F10B5FC
:104560004FF4E1312420FFF783FF10BD26488089F6
:1045700040F400502449888170472349888000BF57
:104580002149098801F080010029F9D0704700B560
:10459000024603E01078FFF7F0FF521C1078002865
:1045A000F8D100BD10B503460C46002204E0985C2B
:1045B000FFF7E3FF501CC2B2A242F8DB10BD10B5FA
:1045C0001148008800F02000A0B10F488088C4B2D4
:1045D0000E4801780078401C0C4A10700C48445476
:1045E0000C4800780C490870FFF754FCFFF78BFC6F
:1045F000FFF757FC10BD000040420F0000100240C2
:104600000010014000140140005000407F070020CE
:10461000720800204D5E0008760700208648874912
:1046200048608748486070478448006940F08000CF
:104630008249086170478148C16801F0010008B1F2
:104640000120704701F0040008B10220F9E701F0F1
:10465000100008B10320F4E70020F2E770B504462B
:1046600000BFFFF7E8FF0546012D00D006E001205E
:10467000FEF7FAF9601E84B2002CF2D100BF04B933
:10468000FF25284670BD70B50546002445F6FF702D
:10469000FFF7E4FF0446C4B96848006940F002002F
:1046A0006649086108464561006940F040000861BC
:1046B00045F6FF70FFF7D2FF0446012C05D05F4896
:1046C000006920F002005D490861204670BD70B5A8
:1046D00005460E46FF20FFF7C1FF044694B9574830
:1046E000006940F00100554908612E80FF20FFF766
:1046F000B5FF0446012C05D05048006920F00100A8
:104700004E490861204670BD0146088870472DE972
:10471000F04105460E461746002407E036F814100F
:104720002846FFF7D4FFAD1C601C84B2BC42F5DB09
:10473000BDE8F08130B503460C461546002207E07F
:104740001846FFF7E1FF24F812009B1C501C82B2B0
:10475000AA42F5DB30BD2DE9F05F80468A46174658
:10476000B8F1006F02D33748804501D3BDE8F09F10
:10477000FFF754FFA8F1006B4FEADB25CBF34909A3
:10478000C9F58064A74200DC3C464EE04FF0006172
:1047900001EBC5204A142C49FFF7CCFF00260BE0A3
:1047A00009EB0600284931F810004FF6FF718842E6
:1047B00000D003E0701C86B2A642F1DB00BFA64227
:1047C0001BDA4FF0006101EBC520FFF75CFF00260C
:1047D00008E03AF8160006EB09011B4A22F811001E
:1047E000701C86B2A642F4DB4FF0006101EBC520DD
:1047F0004A141549FFF78BFF04E022465146404614
:10480000FFF785FFA74200D110E06D1C4FF00009B3
:104810000AEB440A08EB4408381B87B2B7F5806FEF
:1048200002DD4FF4806400E03C46AFE700BFFFF7D5
:10483000FBFE00BF9AE7000023016745002002400D
:10484000AB89EFCD0000080886080020704770474C
:104850007047704701B501226946AD48FFF77BFFFD
:1048600008BD01B501226946A9481430FFF773FF5E
:1048700008BD01B5BDF80000A64981F82C00012251
:104880006946A3481630FFF766FF08BD13B5044616
:10489000611E9F4A3C3A02EB4100012201A9FFF749
:1048A0005AFF1CBD13B50446611E994A283A02EB13
:1048B0004100012201A9FFF74EFF1CBD13B50446BC
:1048C000611E934A143A02EB4100012201A9FFF74D
:1048D00042FF1CBD13B50446611E8D4A2A3202EB0D
:1048E0004100012201A9FFF736FF1CBD0146481E09
:1048F000894A02EB400090F86608704713B50446F9
:10490000611E834A663202EB4100012201A9FFF7D2
:1049100022FF1CBD0146481E7F4A02EB400090F872
:10492000A208704713B50446611E794AA23202EB11
:104930004100012201A9FFF70EFF1CBD0146481EE0
:10494000754A02EB400090F8DE0870477047014658
:10495000704701467047014670476D4800787047C0
:104960006B481430007870476948163000787047FB
:104970000146481E684A02EB4000B0F80008704744
:104980000146481E644A02EB400090F81408704744
:104990000146481E604A02EB400090F82808704724
:1049A00070B5ADF5816D054645F2AA50CDF8040409
:1049B0000024002659480088BDF80414884201D11B
:1049C000012D1DD1002403E0002001A90855641C1D
:1049D000B4F5806FF8D34E4E3C3E002408E04FF40F
:1049E000007201A93046FFF7B6FE06F58066641C2A
:1049F0000A2CF4D301220DF204414848FFF7ABFE24
:104A0000FFF7ABFF4649087140B1012802D00228E8
:104A10000CD107E0B920434908600BE0A0204149D0
:104A2000086007E087203F49086003E0A0203D4977
:104A3000086000BF00BF0DF5816D70BD354908707D
:104A400070473448007870473249487070473148A1
:104A5000407870472F49887070472E48807870479B
:104A600001B59DF800002B49C8700122694628480D
:104A7000FFF771FE08BD264800782649C8707047C8
:104A800070B505460C46062D1BD2DFE805F01A036B
:104A90000A0E1216E0B2FFF7D1FF0120224908707A
:104AA00010E0E0B2FFF7D0FF0CE0E0B2FFF7D2FF7A
:104AB00008E0E0B2FFF7D4FF04E02046FFF7D9FE9C
:104AC00000E000BF00BF70BD00B50346062B1BD23F
:104AD000DFE803F01A03070E1216FFF7B2FF0246D3
:104AE00013E0FFF7B4FF02460020FFF7ADFF0CE034
:104AF000FFF7B3FF024608E0FFF7BDFF024604E000
:104B0000FFF732FF024600BF00BF00BF104600BDE6
:104B10003CD80708B210002000D00708FEFF0708A5
:104B200083070020200200207C0700202DE9F05F91
:104B300005460E46300100F0C3FF8146534905FB90
:104B400001F000F0BDFF8246494600F0A3FE074693
:104B5000384600F07DFF84B2204600F0B1FF834666
:104B6000394601F0F2F882464FF0834100F0F0FF41
:104B7000814600F06DFF80464FF6FF7000EA041496
:104B800004EB080084B24248806940F004004049C8
:104B900088610846806940F4804088613D4800682B
:104BA00020F47F603B4908600846006840F40B60D1
:104BB00008603748C06840F480403549C8600846FE
:104BC000C06820F48040C86033480480001D00881D
:104BD00040F00C003049091D08800846008840F468
:104BE000807008800846008840F02000088002237A
:104BF000252203210120FDF78BFFBDE8F09F10B5B2
:104C00004FF496414820FFF791FF10BD2248001D48
:104C1000008840F400502049091D088070471E4953
:104C2000091F088000BF1C490839098801F080016C
:104C30000029F8D0704710B503460C46002204E066
:104C4000985CFFF7ECFF501CC2B2A242F8DB10BD2B
:104C500010B511480838008800F02000A8B10E48AF
:104C6000001F0088C4B20D4801780078401C0B4A30
:104C700010700B4844540B4800780B490870FFF73C
:104C80009EF9FFF7D7F9FFF7A3F910BD40420F00D7
:104C90000010024004080140083801408907002044
:104CA000E91000204E5E000875070020704770472D
:104CB0007047754600F028F8AE4605006946534631
:104CC00020F00700854618B020B5FBF7B5FABDE81F
:104CD00020404FF000064FF000074FF000084FF063
:104CE000000B21F00701AC46ACE8C009ACE8C009F4
:104CF000ACE8C009ACE8C0098D4670470446AFF384
:104D000000802046FBF77FFA0048704744110020DE
:104D100001491820ABBEFEE72600020070470000E4
:104D200021F00042A2F16052B2F5801F01F0004371
:104D300028BFD2F17F6C0BD95FEA001C43EAC202A4
:104D400042EB507018BF704728BF20F00100704739
:104D5000B2F5801FBCBF184670474FEA410C1CF5E6
:104D6000001F02D2084600F0BABF70B500F084FB05
:104D700000000089FFF7F6BF4FF00040A0F580006B
:104D80007047000010B591EA030F48BF83F000435D
:104D900000F10484841A71EB030C05D2121943EB61
:104DA0000C03001B61EB0C01DFF824E14FEA115406
:104DB000A4EB135C1EEA430F18BF9EEA445F73D056
:104DC00023EA0E03DCF1200E21EA045143F48013A0
:104DD00032D322FA0CFE10EB0E0023FA0CFE41EB4C
:104DE0000E01CCF1200E03FA0EFE10EB0E0051F175
:104DF0000001B1F5801FCCF1200E32D201EB04513D
:104E000012FA0EF2BDE8104058BF7047401C38BF80
:104E10005FEA420218BF7047002814BF20F001006B
:104E200041F100014FEA410313F5001F38BF7047FD
:104E3000A1F1C04100F06EBB012A43EB0302ACF1CB
:104E4000200CDCF11F0E32BF4FF0000E23FA0CF3E2
:104E500010EB030041EB0451B4EB115FD0D0A1EB98
:104E6000045101F5801149085FEA300001EB04515B
:104E70000ED350F1000038BF12FA0EFE08D1BDE883
:104E80001040C9E7401C38BF5FEA4202CAD1C3E7FD
:104E9000BDE810404FEA410313F5001F38BF7047CB
:104EA000A1F1C04100F036BB9EEA445F08D011EA90
:104EB0005E0FBDE8104004BF01F0004100207047C4
:104EC000BDE8104070B500F0D7FA00BF64FBBE3EED
:104ED0000000E0FF491058BFC1F140415B1058BFCE
:104EE000C3F140438B42EFF3008070472DE9C0418E
:104EF00030B4DFF8A0C23CEA111418BF3CEA131426
:104F000000F0EC8081EA03051CEA111444EAD57430
:104F100018BF1CEA131500F0C780A4EB05044FF07E
:104F2000004545EAC12145EAC32341EA505143EA1D
:104F3000525304F17F74994204F500344FEAC020C3
:104F40004FEAC22208BF904200F09C804FEA1365EE
:104F50000FF24016765D4FEA134506FB05F7C7F1E1
:104F6000807706FB07F74FEAD737A7FB036876423F
:104F7000C8F58038A7FB06CE38BFA8F1010807FBAB
:104F800008E64FF0000EA6FB028CE6FB03CEDCF138
:104F9000000CCEF1004E38BFAEF1010EA6FB0C584E
:104FA0004FF000074FF00005E6FB0E87A1FB08C697
:104FB000A0FB07CE16EB0E0645F10005E1FB0765E9
:104FC00015F1E04E7EBFA4F580345FEA46066D41E0
:104FD00016F1800745F100054FEA17274FEA0666EC
:104FE00047EA0567A6F1DE46B6F1805F4FEA152570
:104FF0001FD9384624F0010C05EBC471BCF1FE6FDB
:1050000001EB0C1102D8F0BCBDE8008124425CBF6A
:1050100001F5801E9EEAC47F02D4F0BCBDE8008189
:10502000244238D4F0BCA1F1C041BDE8004100F0F9
:1050300071BA4FEAD22242EA43524FEAD323A7FB86
:1050400002864FEAD02040EA415007FB03661EEA81
:105050000E0F4FEAD12105FB026658BFA6EB0056A2
:10506000B6EB00564FEA520E4EEAC37E18EB0E0E18
:1050700056EB530EBDD518EB02085E417F1C55F16F
:105080000005B6E74FF480154FF000074FF000061B
:105090004FF00008ADE7F0BC4FF0000001F1C04157
:1050A00001F00041BDE8008111EA0C1F0CEA131564
:1050B00000D00CE013EA0C1F00F025804FF0000038
:1050C000F0BC81EA030101F00041BDE80081F0BCC1
:1050D000BDE8004181EA030100F01CBAF0BCBDE864
:1050E000004170B500F0C8F9097EFC3E00F007B839
:1050F00081EA03014FF0000001F00041704781EAAE
:10510000030100F007BAF0BCBDE800414FF0000019
:1051100021497047FFFDFBF9F7F5F4F2F0EEEDEBF6
:10512000E9E8E6E4E3E1E0DEDDDBDAD8D7D5D4D3A5
:10513000D1D0CFCDCCCBCAC8C7C6C5C4C2C1C0BFF1
:10514000BEBDBCBBBAB9B8B7B6B5B4B3B2B1B0AFF7
:10515000AEADACABAAA9A8A8A7A6A5A4A3A3A2A1DB
:10516000A09F9F9E9D9C9C9B9A9999989797969596
:1051700095949393929191908F8F8E8E8D8C8C8B32
:105180008B8A8989888887878685858484838382BA
:10519000828181800000FF070000F87F4FEA410311
:1051A0004FEA5353A3F58063D3F11E03C8BFD3F175
:1051B000210C0CDD4FF0004242EAC12242EA50527B
:1051C00032FA03FC8CEAE17CACEBE1707047102B07
:1051D000C4BF0020704703F5787CBCF1FF3F04D0CA
:1051E0006FF0004282EA2100704770B500F044F988
:1051F0004992248000207047F2E700004FEA1153E3
:10520000A3F58063D3F11E03A8BFD3F1200C08DB04
:105210004FF0004242EAC12252EA505232FA03F001
:10522000704709420BD4102BC4BF0020704703F510
:10523000787CBCF1FF3F05D04FF0FF3070474FF056
:105240000000704770B500F017F900BF4992248044
:1052500000207047F0E710F0004248BF4042B0FA2B
:1052600080F310FA03F10AD0C3F11D0303F5806344
:105270004FEA415002EB035202EBD12170474FF04D
:1052800000007047B0FA80F310FA03F10AD0C3F1BE
:105290001D0303F580634FEA41504FEA035202EBCE
:1052A000D12170474FF000007047000051EA030C15
:1052B00017D41CF5801F58BFBCF5801F00F1068075
:1052C000994218BF704708BF9042704707D711F541
:1052D000801F58BF13F5801F19D499427047894227
:1052E00070471CF5801F08D5BCF5801FF7D58B4291
:1052F00018BF704708BF824270474FF4001C1CEB78
:10530000410F38BF1CEB430F01D28B42704770B581
:1053100000F0B2F8922449004FF000514FF0805352
:10532000FFF7D8BDDFF848C170B51CEA111E1EBFDB
:105330001CEA13159EEA0C0F95EA0C0F00F06F8023
:1053400081EA030423EA4C134EEAD47E21EA4C118D
:1053500041F4801143F48013AE44A1FB024CA0FB46
:105360000365AEF17F7E361955EB0C05A1FB034CAE
:105370004CF10003A0FB021C16EB0C06654153F137
:105380000003094218BF46F0010613F4007F0BD159
:105390004FEA03314FEA0530340341EA155140EA40
:1053A00016506FF003020AE04FEAC3214FEAC5200E
:1053B000F40241EA555140EA56506FF0020202EB06
:1053C0002E4201EB025585EACE710AD05FEA440C09
:1053D00018BF24F0004450F1000041F1000120EA20
:1053E000D47040F2FE7C624500D270BDA84214BF6A
:1053F0004FF080444FF04044002E08BF0024BEF11F
:10540000806FA8BFA1F1C041BDE8704080F28280EA
:105410004FF0000001F1C04101F0004170479EEAE9
:105420000C0F0CEA131518BF95EA0C0F06D04FF0BD
:10543000000081EA030E0EF0004170BD00F01CF880
:105440008900013E00F007B800F009B84FEA430CAC
:105450005FEA5C5C08D081EA030100F05BB84FEAC8
:10546000410C5FEA5C5CF6D14FF0000001497047E7
:105470000000FF070000F87F0EF1020E2EF0030E71
:105480005EF8046B364205D4012A43EB030515F59B
:10549000001F12D8012841EB010C1CF5001F0CD88D
:1054A0000ED14FEAD17C15F5001F0CEB4C0C0CF122
:1054B000020C08BF4CEBD37C04E04FF0080C01E079
:1054C0004FEAD37C0CEB4C0526FA05F606F00706EE
:1054D000B6F1040C06D20EEB860CBDE870404CF021
:1054E000010C6047DFE80CF0090B02024FF00041AD
:1054F0004FF00000A1F5002170BD194610460128AB
:1055000051EB010418BFD4F5001484BF002001F052
:10551000004170BD0808A0F500114FEA3101704745
:1055200053EA010C17D41CF5801F58BFBCF5801F2F
:1055300000F106808B4218BF704708BF8242704757
:1055400007D713F5801F58BF11F5801F19D48B4260
:1055500070479B4270471CF5801F08D5BCF5801F23
:10556000F7D5994218BF704708BF904270474FF473
:10557000001C1CEB430F38BF1CEB410F01D29942BA
:1055800070470FB40CBC03BCFFF7C1BE10B591EA65
:10559000030F48BF83F000433FF5FCAB841A71EB67
:1055A000030C07D212198CF0004C43EB0C03001BC8
:1055B00061EB0C01DFF8A4E14FEA1154A4EB135C9A
:1055C0001EEA430F18BF9EEA445F00F0B08023EA52
:1055D0006E03524221EA0451C3EB6E0338BF5B1ED7
:1055E000DCF1200E25D322FA0CFE10EB0E0043FA5C
:1055F0000CFE41EB0E01CCF1200E03FA0EFE10EB77
:105600000E0051F10001CCF1200E29D412FA0EF255
:1056100001EB0451BDE8104058BF7047401C1CBF4F
:10562000B2F1004F704700280CBF491C20F0010068
:10563000704712EB020E43EB030218BF4FF0010E4E
:105640004EEA4202ACF1200CDCF11E0E54D943FAB2
:105650000CFE10EB0E0051F1FF31CCF11E0ED5D532
:105660000EF1010E12FA0EFE404141EB010101EB79
:10567000445C5FEA5C5C10D910EBDE7001EB045116
:1056800038BFBEF1004FBDE8104018BF704700287A
:105690000CBF491C20F00100704730D24FEAD42CD7
:1056A00011F5001124F400641BD0B1FA81F20B3A19
:1056B000A41AA41ED2F12003914030FA03F3194337
:1056C000904001EBCC71002C01EB0451BDE810407F
:1056D000A8BF704701F1C0414FF0000001F0004148
:1056E0007047B0FA80F310FA03F100D110BDE41A4C
:1056F000173C4805C90AE4E701EB045110BD491005
:1057000001EB0451BDE810404FEA300002E04FF0D9
:10571000000170474A0008BF0042F8D0B2F5001FF0
:1057200028BF704701F000414FF0000070479EEA2B
:10573000445F07D011EA5E0FBDE8104004BF0021AE
:1057400000207047BDE8104070B5FFF795FE00BF20
:1057500040DFF63E83F00041104670470000E0FF56
:1057600043004FEAD30C4FEA3C0C43401FBF4007B5
:105770000CF1605113F0FE4F70471CF0006F03D125
:1057800000200CF0004170470CF0004343EA5070D9
:1057900010B540EACC0000F05CFA00BF00000092B7
:1057A0004FEA0001FFF7B6BE4FF000414FF0000096
:1057B000A1F500217047000090EA010F48BF81F079
:1057C000004100F1D482421A3CBF801A89184FEA86
:1057D000D0524FF07F4C1CEA410FA2EBD15318BFBF
:1057E0009CEA026F00F03B804FF0004C4CEA002036
:1057F0004CEA012121FA03FC10EB0C0C1ED202F141
:10580000FF325FEA1C2040EBC25038BF70471CF0EB
:105810007F0F4FEA400C18BFBCF17F4F38BF704775
:10582000C3F12003994008BF20F00100BCF17F4F75
:1058300038BF7047A0F1C04000F051BA4FEA3C00B9
:10584000000A40EBC25028BF1CF0FF0F4FEA400C8B
:10585000E6D018BFBCF17F4F38BF7047EAE79CEA3B
:10586000026F05D010EA5C0F08BF00F000407047DF
:1058700010B500F0EEF900BF64FBBE3E401058BF0B
:10588000C0F14040491058BFC1F140418142EFF39F
:10589000008070474FF47F0C1CEAD0121EBF1CEA38
:1058A000D11392EA0C0F93EA0C0F00F0858090EA76
:1058B000010F48BF42F4807240F4000C41F4000034
:1058C0002CF07F4120F07F4000B58142A2EB030223
:1058D0000FF2081CACEB504EC0F100009EF800E047
:1058E0004FEA4E0E00FB0EFC38BF49004FEA2C1C5D
:1058F00002F5FA020CFB0EF34FEACE1E4FEA112C12
:105900004FEAC1210EEB635E42EB22420EFB0CFC20
:105910004FEA1C5300FB03114FEA112C4FEA0131EF
:105920000EFB0CFC4FEADC4C00FB0C11C14228BF03
:1059300009184CEB03335DF804EB10EB410143EB2A
:10594000C250B2F57C0F38BF704729D512F0F00F66
:105950001CBF00F1C04000F000407047008182830E
:105960008485868788898B8C8D8E8F91929395966E
:1059700097999A9C9D9FA0A2A3A5A7A8AAACAEB0F8
:10598000B2B3B5B7B9BCBEC0C2C5C7C9CCCED1D4FD
:10599000D7D9DCDFE2E6E9ECF0F3F7FAFE0000002D
:1059A0004FEA400C0CF1807CBCF17E4F28BF704761
:1059B000B0F1C04000F093B990EA010F0CEAD113A6
:1059C00048BF42F48072624538BF634507D213F482
:1059D0007F0F16D080EA010000F00040704710B53C
:1059E00000F037F9097EFC3E00F005B880EA0100BE
:1059F00000F00040704780EA010000F0004000F035
:105A00006EB912F47F0F04BF0248704780EA0100AC
:105A100000F065B90000C07F41000B0ED3F19E027B
:105A200008D950F400034FEA032323FA02F048BFD9
:105A30004042704710B500F00CF900BF4992248035
:105A4000002070476FF0004282EA2000704700009B
:105A5000C10DD1F19E0206DB4FEA002343F0004363
:105A600023FA02F07047004207D54FEA4001B1F136
:105A7000FE4F02D24FF00000704710B500F0E9F879
:105A800049922480002070476FEA20007047000090
:105A900010F0004148BF4042B0FA80F310FA03F220
:105AA000C3F19D030BD051EAC35101EB1220530601
:105AB00038BF704700F1010008BF20F001007047B7
:105AC000B0FA80F310FA03F2C3F19D030AD0D905AE
:105AD00001EB1220530638BF704700F1010008BFE8
